{
  "contractName": "Election",
  "abi": [
    {
      "inputs": [],
      "stateMutability": "nonpayable",
      "type": "constructor"
    },
    {
      "inputs": [],
      "name": "candidate",
      "outputs": [
        {
          "internalType": "string",
          "name": "",
          "type": "string"
        }
      ],
      "stateMutability": "view",
      "type": "function",
      "constant": true
    },
    {
      "inputs": [
        {
          "internalType": "uint256",
          "name": "",
          "type": "uint256"
        }
      ],
      "name": "candidates",
      "outputs": [
        {
          "internalType": "uint256",
          "name": "id",
          "type": "uint256"
        },
        {
          "internalType": "string",
          "name": "name",
          "type": "string"
        },
        {
          "internalType": "uint256",
          "name": "voteCount",
          "type": "uint256"
        }
      ],
      "stateMutability": "view",
      "type": "function",
      "constant": true
    },
    {
      "inputs": [],
      "name": "candidatesCount",
      "outputs": [
        {
          "internalType": "uint256",
          "name": "",
          "type": "uint256"
        }
      ],
      "stateMutability": "view",
      "type": "function",
      "constant": true
    }
  ],
  "bytecode": "0x60806040523480156200001157600080fd5b50620000586040518060400160405280600b81526020017f43616e6469646174652031000000000000000000000000000000000000000000815250620000a460201b60201c565b6200009e6040518060400160405280600b81526020017f43616e6469646174652032000000000000000000000000000000000000000000815250620000a460201b60201c565b62000500565b60026000815480929190620000b9906200015c565b919050555060405180606001604052806002548152602001828152602001600081525060016000600254815260200190815260200160002060008201518160000155602082015181600101908162000112919062000419565b506040820151816002015590505050565b7f4e487b7100000000000000000000000000000000000000000000000000000000600052601160045260246000fd5b6000819050919050565b6000620001698262000152565b91507fffffffffffffffffffffffffffffffffffffffffffffffffffffffffffffffff82036200019e576200019d62000123565b5b600182019050919050565b600081519050919050565b7f4e487b7100000000000000000000000000000000000000000000000000000000600052604160045260246000fd5b7f4e487b7100000000000000000000000000000000000000000000000000000000600052602260045260246000fd5b600060028204905060018216806200022b57607f821691505b602082108103620002415762000240620001e3565b5b50919050565b60008190508160005260206000209050919050565b60006020601f8301049050919050565b600082821b905092915050565b600060088302620002ab7fffffffffffffffffffffffffffffffffffffffffffffffffffffffffffffffff826200026c565b620002b786836200026c565b95508019841693508086168417925050509392505050565b6000819050919050565b6000620002fa620002f4620002ee8462000152565b620002cf565b62000152565b9050919050565b6000819050919050565b6200031683620002d9565b6200032e620003258262000301565b84845462000279565b825550505050565b600090565b6200034562000336565b620003528184846200030b565b505050565b5b818110156200037a576200036e6000826200033b565b60018101905062000358565b5050565b601f821115620003c957620003938162000247565b6200039e846200025c565b81016020851015620003ae578190505b620003c6620003bd856200025c565b83018262000357565b50505b505050565b600082821c905092915050565b6000620003ee60001984600802620003ce565b1980831691505092915050565b6000620004098383620003db565b9150826002028217905092915050565b6200042482620001a9565b67ffffffffffffffff81111562000440576200043f620001b4565b5b6200044c825462000212565b620004598282856200037e565b600060209050601f8311600181146200049157600084156200047c578287015190505b620004888582620003fb565b865550620004f8565b601f198416620004a18662000247565b60005b82811015620004cb57848901518255600182019150602085019450602081019050620004a4565b86831015620004eb5784890151620004e7601f891682620003db565b8355505b6001600288020188555050505b505050505050565b61041280620005106000396000f3fe608060405234801561001057600080fd5b50600436106100415760003560e01c80632d35a8a2146100465780633477ee2e146100645780636c8381f814610096575b600080fd5b61004e6100b4565b60405161005b9190610213565b60405180910390f35b61007e6004803603810190610079919061025f565b6100ba565b60405161008d9392919061031c565b60405180910390f35b61009e61016c565b6040516100ab919061035a565b60405180910390f35b60025481565b60016020528060005260406000206000915090508060000154908060010180546100e3906103ab565b80601f016020809104026020016040519081016040528092919081815260200182805461010f906103ab565b801561015c5780601f106101315761010080835404028352916020019161015c565b820191906000526020600020905b81548152906001019060200180831161013f57829003601f168201915b5050505050908060020154905083565b60008054610179906103ab565b80601f01602080910402602001604051908101604052809291908181526020018280546101a5906103ab565b80156101f25780601f106101c7576101008083540402835291602001916101f2565b820191906000526020600020905b8154815290600101906020018083116101d557829003601f168201915b505050505081565b6000819050919050565b61020d816101fa565b82525050565b60006020820190506102286000830184610204565b92915050565b600080fd5b61023c816101fa565b811461024757600080fd5b50565b60008135905061025981610233565b92915050565b6000602082840312156102755761027461022e565b5b60006102838482850161024a565b91505092915050565b600081519050919050565b600082825260208201905092915050565b60005b838110156102c65780820151818401526020810190506102ab565b60008484015250505050565b6000601f19601f8301169050919050565b60006102ee8261028c565b6102f88185610297565b93506103088185602086016102a8565b610311816102d2565b840191505092915050565b60006060820190506103316000830186610204565b818103602083015261034381856102e3565b90506103526040830184610204565b949350505050565b6000602082019050818103600083015261037481846102e3565b905092915050565b7f4e487b7100000000000000000000000000000000000000000000000000000000600052602260045260246000fd5b600060028204905060018216806103c357607f821691505b6020821081036103d6576103d561037c565b5b5091905056fea2646970667358221220d802d08042c9dc7f00d0555ad4267e37fa053b0e17067b42806f97dc877f519f64736f6c63430008110033",
  "immutableReferences": {},
  "source": "// SPDX-License-Identifier: MIT\r\npragma solidity ^0.8.17;\r\n\r\ncontract Election{\r\n    string public candidate;\r\n\r\n    //constructor\r\n    constructor () {\r\n        addCandidate(\"Candidate 1\");\r\n        addCandidate(\"Candidate 2\");\r\n    }\r\n    \r\n    struct Candidate{\r\n        uint id;\r\n        string name;\r\n        uint voteCount;\r\n    }\r\n    // Read and write candidate\r\n    mapping(uint => Candidate) public candidates;\r\n    // Store candiates count\r\n    uint public candidatesCount;\r\n\r\n    function addCandidate(string memory _name) private{\r\n        candidatesCount ++;\r\n        candidates[candidatesCount] = Candidate(candidatesCount, _name, 0);\r\n    }\r\n}",
  "sourcePath": "C:\\Users\\Lenovo\\Documents\\Web3\\Github\\election\\contracts\\Election.sol",
  "compiler": {
    "name": "solc",
    "version": "0.8.17+commit.8df45f5f.Emscripten.clang"
  },
  "schemaVersion": "3.4.10",
  "updatedAt": "2022-12-27T10:57:57.748Z",
  "networkType": "ethereum",
  "devdoc": {
    "kind": "dev",
    "methods": {},
    "version": 1
  },
  "userdoc": {
    "kind": "user",
    "methods": {},
    "version": 1
  }
}